:100000000C945D000C9485000C9485000C94850084
:100010000C9485000C9485000C9485000C9485004C
:100020000C9485000C9485000C9485000C9485003C
:100030000C9485000C9485000C9485000C9485002C
:100040000C947C020C9485000C9442020C940702E0
:100050000C9485000C9485000C9485000C9485000C
:100060000C9485000C94850000000007000201003C
:100070000003040600000000000000000000000073
:10008000250028002B0000000000240027002A0083
:10009000040404040404040402020202020203032E
:1000A0000303030301020408102040800102040836
:1000B0001020010204081020C60211241FBECFEF39
:1000C000D8E0DEBFCDBF11E0A0E0B1E0ECEAF7E0A0
:1000D00002C005900D92AA31B107D9F721E0AAE13B
:1000E000B1E001C01D92AD3CB207E1F710E0CDE5F3
:1000F000D0E004C02197FE010E94CE03CC35D10789
:10010000C9F70E9401030C94CB030C94000090E00B
:10011000FC01EC55FF4F2491FC01E057FF4F849107
:10012000882399F090E0880F991FFC01EA57FF4F50
:10013000A591B491FC01E458FF4F859194918FB73C
:10014000F894EC91E22BEC938FBF089508950F93F0
:100150001F93CF93DF93FC01A685B7858D01005CCB
:100160001F4FE8018881998101968F739927AD010E
:100170004E5B5F4FEA012881398128173907D1F397
:10018000E80128813981A20FB31F6C93A685B7853A
:10019000A05CBF4F11969C938E93A689B7892C9132
:1001A00081E090E0078C02C0880F991F0A94E2F763
:1001B000822B8C9381E081A30488F589E02D8081D6
:1001C0008064808381E090E0DF91CF911F910F9157
:1001D0000895FC0181A1882329F0A489B5898C9117
:1001E00086FFFBCF11A20895FC01A485B585FD0112
:1001F000E05CFF4F20813181329680819181281708
:10020000390779F080819181A80FB91F8C912081E5
:1002100031812F5F3F4F2F7333273183208390E04D
:1002200008958FEF9FEF0895DC011C96ED91FC91EE
:100230001D97DF01A05CBF4F2D913C911197129645
:100240008D919C9111972817390739F08D919C91C8
:10025000E80FF91F808190E008958FEF9FEF0895D8
:10026000FC0124853585F901E05CFF4F8081918197
:10027000329620813181821B930B8F7399270895C9
:100280008BEA91E00C943001CF92DF92EF92FF92D3
:100290000F931F93CF93DF936C01EB017B01E40E6F
:1002A000F51E00E010E0CE15DF0561F06991D60182
:1002B000ED91FC910190F081E02DC6010995080FA8
:1002C000191FF1CFC801DF91CF911F910F91FF90BE
:1002D000EF90DF90CF90089590E0FC01E859FF4F38
:1002E0002491FC01EC55FF4F3491FC01E057FF4F86
:1002F000E491EE2309F43CC0222339F1233091F03C
:1003000038F42130A9F0223001F584B58F7D12C078
:10031000263091F02730A1F02430B9F4809180008C
:100320008F7D03C0809180008F77809380000DC007
:1003300084B58F7784BD09C08091B0008F7703C0EA
:100340008091B0008F7D8093B000F0E0EE0FFF1F32
:10035000E458FF4FA591B4919FB7F894611104C080
:100360008C913095382302C0EC913E2B3C939FBF7B
:1003700008953FB7F89480911F0190912001A091BA
:100380002101B091220126B5A89B05C02F3F19F08D
:100390000196A11DB11D3FBFBA2FA92F982F882705
:1003A000820F911DA11DB11DBC01CD0142E0660F60
:1003B000771F881F991F4A95D1F70895CF92DF9232
:1003C000EF92FF92CF93DF930E94B901EB0184EF8C
:1003D000C82EDD24D394E12CF12C0E94B9016C1BB2
:1003E0007D0B683E7340C8F381E0C81AD108E1086C
:1003F000F108C851DC4FC114D104E104F10469F7DC
:10040000DF91CF91FF90EF90DF90CF9008951F92F2
:100410000F920FB60F9211242F933F938F939F93B8
:10042000EF93FF9320916301309164018091650106
:10043000909166012817390731F48091C1008F7DB2
:100440008093C10014C0E0916501F0916601ED5DFB
:10045000FE4F2081809165019091660101968F7316
:10046000992790936601809365012093C600FF91C0
:10047000EF919F918F913F912F910F900FBE0F9011
:100480001F9018951F920F920FB60F9211242F9361
:100490004F935F938F939F93EF93FF938091C0004F
:1004A00082FD1CC02091C6008091A7019091A801F7
:1004B0004091A9015091AA0101968F73992748177D
:1004C000590771F0E091A701F091A801E959FE4F99
:1004D00020839093A8018093A70102C08091C60059
:1004E000FF91EF919F918F915F914F912F910F907D
:1004F0000FBE0F901F9018951F920F920FB60F927C
:1005000011242F933F938F939F93AF93BF93809129
:100510001B0190911C01A0911D01B0911E01309111
:100520001A0123E0230F2D3720F40196A11DB11DE0
:1005300005C026E8230F0296A11DB11D20931A01C4
:1005400080931B0190931C01A0931D01B0931E0189
:1005500080911F0190912001A0912101B091220171
:100560000196A11DB11D80931F0190932001A093BE
:100570002101B0932201BF91AF919F918F913F9143
:100580002F910F900FBE0F901F901895EBEAF1E09E
:100590001382128288EE93E0A0E0B0E0848395831A
:1005A000A683B78384E091E09183808387E691E01E
:1005B0009587848783E291E09787868785EC90E032
:1005C000918B808B84EC90E0938B828B80EC90E01D
:1005D000958B848B81EC90E0978B868B82EC90E0FE
:1005E000918F808F86EC90E0938F828F84E0848F50
:1005F00083E0858F87E0868F85E0878F81E080A309
:100600000895789484B5826084BD84B5816084BD8A
:1006100085B5826085BD85B5816085BD80916E00A0
:10062000816080936E0010928100809181008260D1
:10063000809381008091810081608093810080910E
:1006400080008160809380008091B10084608093FD
:10065000B1008091B00081608093B00080917A00F9
:10066000846080937A0080917A00826080937A001F
:1006700080917A00816080937A0080917A0080680E
:1006800080937A001092C100E091BF01F091C00107
:1006900081E090E09C010090CB0102C0220F331F4B
:1006A0000A94E2F72083E091BB01F091BC01108233
:1006B000E091BD01F091BE0120E120831092CC01B8
:1006C000E091C101F091C20140819C010090C701FD
:1006D00002C0220F331F0A94E2F7242B2083E091FB
:1006E000C101F091C20140819C010090C80102C08B
:1006F000220F331F0A94E2F7242B2083E091C101DB
:10070000F091C20140819C010090C90102C0220FFA
:10071000331F0A94E2F7242B2083E091C101F0916A
:10072000C20120810090CA0102C0880F991F0A945B
:10073000E2F780958223808386E00E94870060E054
:1007400086E00E946C0187E00E94870060E087E0FD
:100750000E946C010E94DE0161E087E00E946C0152
:100760000E94DE0160E087E00E946C0148E050E0FA
:1007700060E171E08BEA91E00E9444016DE08BEA58
:1007800091E00E94A7006AE08BEA91E00E94A70036
:100790000E944001DFCFF8940C94D403EE0FFF1FAA
:0C07A0000590F491E02D0994F894FFCF2F
:1007AC0000000000A70044013001F4001401E9002E
:0A07BC0068656174626561740000F5
:00000001FF
